{
  "contractName": "registrosAbox",
  "abi": [
    {
      "inputs": [],
      "name": "counter",
      "outputs": [
        {
          "internalType": "uint256",
          "name": "",
          "type": "uint256"
        }
      ],
      "stateMutability": "view",
      "type": "function",
      "constant": true
    },
    {
      "inputs": [
        {
          "internalType": "uint256",
          "name": "",
          "type": "uint256"
        }
      ],
      "name": "registros",
      "outputs": [
        {
          "internalType": "uint256",
          "name": "id",
          "type": "uint256"
        },
        {
          "internalType": "string",
          "name": "code",
          "type": "string"
        },
        {
          "internalType": "string",
          "name": "HasCachedAcl",
          "type": "string"
        },
        {
          "internalType": "string",
          "name": "idRegistro",
          "type": "string"
        },
        {
          "internalType": "uint256",
          "name": "IsRemoved",
          "type": "uint256"
        },
        {
          "internalType": "string",
          "name": "Name",
          "type": "string"
        },
        {
          "internalType": "string",
          "name": "Reference",
          "type": "string"
        },
        {
          "internalType": "string",
          "name": "Schemas",
          "type": "string"
        }
      ],
      "stateMutability": "view",
      "type": "function",
      "constant": true
    },
    {
      "inputs": [
        {
          "internalType": "string",
          "name": "_code",
          "type": "string"
        },
        {
          "internalType": "string",
          "name": "_HasCachedAcl",
          "type": "string"
        },
        {
          "internalType": "string",
          "name": "_idRegistro",
          "type": "string"
        },
        {
          "internalType": "uint256",
          "name": "_IsRemoved",
          "type": "uint256"
        },
        {
          "internalType": "string",
          "name": "_Name",
          "type": "string"
        },
        {
          "internalType": "string",
          "name": "_Reference",
          "type": "string"
        },
        {
          "internalType": "string",
          "name": "_Schemas",
          "type": "string"
        }
      ],
      "name": "createRegistro",
      "outputs": [],
      "stateMutability": "nonpayable",
      "type": "function"
    },
    {
      "inputs": [
        {
          "internalType": "string",
          "name": "_Name",
          "type": "string"
        }
      ],
      "name": "buscarPorNombre",
      "outputs": [
        {
          "internalType": "string",
          "name": "",
          "type": "string"
        }
      ],
      "stateMutability": "view",
      "type": "function",
      "constant": true
    },
    {
      "inputs": [
        {
          "internalType": "string",
          "name": "_abox",
          "type": "string"
        }
      ],
      "name": "buscarRegristroPorId",
      "outputs": [
        {
          "components": [
            {
              "internalType": "uint256",
              "name": "id",
              "type": "uint256"
            },
            {
              "internalType": "string",
              "name": "code",
              "type": "string"
            },
            {
              "internalType": "string",
              "name": "HasCachedAcl",
              "type": "string"
            },
            {
              "internalType": "string",
              "name": "idRegistro",
              "type": "string"
            },
            {
              "internalType": "uint256",
              "name": "IsRemoved",
              "type": "uint256"
            },
            {
              "internalType": "string",
              "name": "Name",
              "type": "string"
            },
            {
              "internalType": "string",
              "name": "Reference",
              "type": "string"
            },
            {
              "internalType": "string",
              "name": "Schemas",
              "type": "string"
            }
          ],
          "internalType": "struct registrosAbox.registro",
          "name": "",
          "type": "tuple"
        }
      ],
      "stateMutability": "view",
      "type": "function",
      "constant": true
    },
    {
      "inputs": [
        {
          "internalType": "string",
          "name": "_code",
          "type": "string"
        },
        {
          "internalType": "string",
          "name": "_HasCachedAcl",
          "type": "string"
        },
        {
          "internalType": "string",
          "name": "_idRegistro",
          "type": "string"
        },
        {
          "internalType": "uint256",
          "name": "_IsRemoved",
          "type": "uint256"
        },
        {
          "internalType": "string",
          "name": "_Name",
          "type": "string"
        },
        {
          "internalType": "string",
          "name": "_Reference",
          "type": "string"
        },
        {
          "internalType": "string",
          "name": "_Schemas",
          "type": "string"
        }
      ],
      "name": "actualizarRegistro",
      "outputs": [],
      "stateMutability": "nonpayable",
      "type": "function"
    },
    {
      "inputs": [
        {
          "internalType": "string",
          "name": "_idRegistro",
          "type": "string"
        }
      ],
      "name": "borrarRegistro",
      "outputs": [],
      "stateMutability": "nonpayable",
      "type": "function"
    }
  ],
  "bytecode": "0x60806040526000805534801561001457600080fd5b506120d8806100246000396000f3fe608060405234801561001057600080fd5b506004361061007d5760003560e01c80639f2589201161005b5780639f258920146100d8578063c18aab7f14610108578063ded39a5d14610124578063f23a50931461015b5761007d565b80632b34c3c914610082578063538b5be11461009e57806361bc221a146100ba575b600080fd5b61009c60048036038101906100979190611706565b61018b565b005b6100b860048036038101906100b3919061174f565b61038a565b005b6100c2610587565b6040516100cf9190611bd1565b60405180910390f35b6100f260048036038101906100ed9190611706565b61058d565b6040516100ff9190611baf565b60405180910390f35b610122600480360381019061011d919061174f565b610970565b005b61013e60048036038101906101399190611899565b610ba4565b604051610152989796959493929190611bec565b60405180910390f35b61017560048036038101906101709190611706565b610f1c565b6040516101829190611b4d565b60405180910390f35b60008160405160200161019e9190611b1f565b6040516020818303038152906040528051906020012060001c905060006001600083815260200190815260200160002060000154111561034b57604051806101000160405280600081526020016040518060200160405280600081525081526020016040518060200160405280600081525081526020016040518060200160405280600081525081526020016000815260200160405180602001604052806000815250815260200160405180602001604052806000815250815260200160405180602001604052806000815250815250600160008381526020019081526020016000206000820151816000015560208201518160010190805190602001906102a7929190611599565b5060408201518160020190805190602001906102c4929190611599565b5060608201518160030190805190602001906102e1929190611599565b506080820151816004015560a0820151816005019080519060200190610308929190611599565b5060c0820151816006019080519060200190610325929190611599565b5060e0820151816007019080519060200190610342929190611599565b50905050610386565b6040517f08c379a000000000000000000000000000000000000000000000000000000000815260040161037d90611b6f565b60405180910390fd5b5050565b60008560405160200161039d9190611b1f565b6040516020818303038152906040528051906020012060001c905060006103c3856110ba565b90506000816040516020016103d89190611b1f565b6040516020818303038152906040528051906020012060001c905060006001600085815260200190815260200160002060000154111561044d576040517f08c379a000000000000000000000000000000000000000000000000000000000815260040161044490611b8f565b60405180910390fd5b6104696002600083815260200190815260200160002084611152565b6040518061010001604052808481526020018b81526020018a815260200189815260200188815260200187815260200186815260200185815250600160008581526020019081526020016000206000820151816000015560208201518160010190805190602001906104dc929190611599565b5060408201518160020190805190602001906104f9929190611599565b506060820151816003019080519060200190610516929190611599565b506080820151816004015560a082015181600501908051906020019061053d929190611599565b5060c082015181600601908051906020019061055a929190611599565b5060e0820151816007019080519060200190610577929190611599565b5090505050505050505050505050565b60005481565b61059561161f565b6000826040516020016105a89190611b1f565b6040516020818303038152906040528051906020012060001c905060006001600083815260200190815260200160002060405180610100016040529081600082015481526020016001820180546105fe90611e4e565b80601f016020809104026020016040519081016040528092919081815260200182805461062a90611e4e565b80156106775780601f1061064c57610100808354040283529160200191610677565b820191906000526020600020905b81548152906001019060200180831161065a57829003601f168201915b5050505050815260200160028201805461069090611e4e565b80601f01602080910402602001604051908101604052809291908181526020018280546106bc90611e4e565b80156107095780601f106106de57610100808354040283529160200191610709565b820191906000526020600020905b8154815290600101906020018083116106ec57829003601f168201915b5050505050815260200160038201805461072290611e4e565b80601f016020809104026020016040519081016040528092919081815260200182805461074e90611e4e565b801561079b5780601f106107705761010080835404028352916020019161079b565b820191906000526020600020905b81548152906001019060200180831161077e57829003601f168201915b50505050508152602001600482015481526020016005820180546107be90611e4e565b80601f01602080910402602001604051908101604052809291908181526020018280546107ea90611e4e565b80156108375780601f1061080c57610100808354040283529160200191610837565b820191906000526020600020905b81548152906001019060200180831161081a57829003601f168201915b5050505050815260200160068201805461085090611e4e565b80601f016020809104026020016040519081016040528092919081815260200182805461087c90611e4e565b80156108c95780601f1061089e576101008083540402835291602001916108c9565b820191906000526020600020905b8154815290600101906020018083116108ac57829003601f168201915b505050505081526020016007820180546108e290611e4e565b80601f016020809104026020016040519081016040528092919081815260200182805461090e90611e4e565b801561095b5780601f106109305761010080835404028352916020019161095b565b820191906000526020600020905b81548152906001019060200180831161093e57829003601f168201915b50505050508152505090508092505050919050565b6000856040516020016109839190611b1f565b6040516020818303038152906040528051906020012060001c9050600060016000838152602001908152602001600020600001541115610b5f57876001600083815260200190815260200160002060010190805190602001906109e7929190611599565b5086600160008381526020019081526020016000206002019080519060200190610a12929190611599565b5084600160008381526020019081526020016000206004018190555082600160008381526020019081526020016000206006019080519060200190610a58929190611599565b5081600160008381526020019081526020016000206007019080519060200190610a83929190611599565b50600060016000838152602001908152602001600020600501604051602001610aac9190611b36565b6040516020818303038152906040528051906020012060001c9050610ae360026000838152602001908152602001600020836111f8565b600085604051602001610af69190611b1f565b6040516020818303038152906040528051906020012060001c9050610b2d6002600083815260200190815260200160002084611152565b85600160008581526020019081526020016000206005019080519060200190610b57929190611599565b505050610b9a565b6040517f08c379a0000000000000000000000000000000000000000000000000000000008152600401610b9190611b6f565b60405180910390fd5b5050505050505050565b6001602052806000526040600020600091509050806000015490806001018054610bcd90611e4e565b80601f0160208091040260200160405190810160405280929190818152602001828054610bf990611e4e565b8015610c465780601f10610c1b57610100808354040283529160200191610c46565b820191906000526020600020905b815481529060010190602001808311610c2957829003601f168201915b505050505090806002018054610c5b90611e4e565b80601f0160208091040260200160405190810160405280929190818152602001828054610c8790611e4e565b8015610cd45780601f10610ca957610100808354040283529160200191610cd4565b820191906000526020600020905b815481529060010190602001808311610cb757829003601f168201915b505050505090806003018054610ce990611e4e565b80601f0160208091040260200160405190810160405280929190818152602001828054610d1590611e4e565b8015610d625780601f10610d3757610100808354040283529160200191610d62565b820191906000526020600020905b815481529060010190602001808311610d4557829003601f168201915b505050505090806004015490806005018054610d7d90611e4e565b80601f0160208091040260200160405190810160405280929190818152602001828054610da990611e4e565b8015610df65780601f10610dcb57610100808354040283529160200191610df6565b820191906000526020600020905b815481529060010190602001808311610dd957829003601f168201915b505050505090806006018054610e0b90611e4e565b80601f0160208091040260200160405190810160405280929190818152602001828054610e3790611e4e565b8015610e845780601f10610e5957610100808354040283529160200191610e84565b820191906000526020600020905b815481529060010190602001808311610e6757829003601f168201915b505050505090806007018054610e9990611e4e565b80601f0160208091040260200160405190810160405280929190818152602001828054610ec590611e4e565b8015610f125780601f10610ee757610100808354040283529160200191610f12565b820191906000526020600020905b815481529060010190602001808311610ef557829003601f168201915b5050505050905088565b60606000610f29836110ba565b9050600081604051602001610f3e9190611b1f565b6040516020818303038152906040528051906020012060001c9050600060405180602001604052806000815250905060005b610f8b6002600085815260200190815260200160002061132a565b8110156110ae576000610fb0600260008681526020019081526020016000208361133b565b9050611098610ff4846040518060400160405280600181526020017f3b00000000000000000000000000000000000000000000000000000000000000815250611366565b60016000848152602001908152602001600020600301805461101590611e4e565b80601f016020809104026020016040519081016040528092919081815260200182805461104190611e4e565b801561108e5780601f106110635761010080835404028352916020019161108e565b820191906000526020600020905b81548152906001019060200180831161107157829003601f168201915b5050505050611366565b92505080806110a690611eb1565b915050610f70565b81945050505050919050565b6060600082905060005b8151811015611148576110f38282815181106110e3576110e2611fb6565b5b602001015160f81c60f81b611513565b82828151811061110657611105611fb6565b5b60200101907effffffffffffffffffffffffffffffffffffffffffffffffffffffffffffff1916908160001a905350808061114090611eb1565b9150506110c4565b5080915050919050565b81600201600082815260200190815260200160002060009054906101000a900460ff166111f457600182600201600083815260200190815260200160002060006101000a81548160ff021916908315150217905550816000018054905082600101600083815260200190815260200160002081905550816000018190806001815401808255809150506001900390600052602060002001600090919091909150555b5050565b81600201600082815260200190815260200160002060009054906101000a900460ff1661122457611326565b81600201600082815260200190815260200160002060006101000a81549060ff021916905560008260010160008381526020019081526020016000205490506000600184600001805490506112799190611d8d565b9050600084600001828154811061129357611292611fb6565b5b90600052602060002001549050828560010160008381526020019081526020016000208190555084600101600085815260200190815260200160002060009055808560000184815481106112ea576112e9611fb6565b5b90600052602060002001819055508460000180548061130c5761130b611f87565b5b600190038181906000526020600020016000905590555050505b5050565b600081600001805490509050919050565b600082600001828154811061135357611352611fb6565b5b9060005260206000200154905092915050565b606060008390506000839050600081511161138457611383611efa565b5b6000815183516113949190611d37565b67ffffffffffffffff8111156113ad576113ac611fe5565b5b6040519080825280601f01601f1916602001820160405280156113df5781602001600182028036833780820191505090505b5090506000819050600080600091505b85518210156114775785828151811061140b5761140a611fb6565b5b602001015160f81c60f81b83828061142290611eb1565b93508151811061143557611434611fb6565b5b60200101907effffffffffffffffffffffffffffffffffffffffffffffffffffffffffffff1916908160001a905350818061146f90611eb1565b9250506113ef565b600091505b84518210156115045784828151811061149857611497611fb6565b5b602001015160f81c60f81b8382806114af90611eb1565b9350815181106114c2576114c1611fb6565b5b60200101907effffffffffffffffffffffffffffffffffffffffffffffffffffffffffffff1916908160001a90535081806114fc90611eb1565b92505061147c565b82965050505050505092915050565b6000606160f81b827effffffffffffffffffffffffffffffffffffffffffffffffffffffffffffff1916101580156115715750607a60f81b827effffffffffffffffffffffffffffffffffffffffffffffffffffffffffffff191611155b156115905760208260f81c6115869190611dc1565b60f81b9050611594565b8190505b919050565b8280546115a590611e4e565b90600052602060002090601f0160209004810192826115c7576000855561160e565b82601f106115e057805160ff191683800117855561160e565b8280016001018555821561160e579182015b8281111561160d5782518255916020019190600101906115f2565b5b50905061161b9190611664565b5090565b60405180610100016040528060008152602001606081526020016060815260200160608152602001600081526020016060815260200160608152602001606081525090565b5b8082111561167d576000816000905550600101611665565b5090565b600061169461168f84611cb9565b611c94565b9050828152602081018484840111156116b0576116af612019565b5b6116bb848285611e0c565b509392505050565b600082601f8301126116d8576116d7612014565b5b81356116e8848260208601611681565b91505092915050565b6000813590506117008161208b565b92915050565b60006020828403121561171c5761171b612023565b5b600082013567ffffffffffffffff81111561173a5761173961201e565b5b611746848285016116c3565b91505092915050565b600080600080600080600060e0888a03121561176e5761176d612023565b5b600088013567ffffffffffffffff81111561178c5761178b61201e565b5b6117988a828b016116c3565b975050602088013567ffffffffffffffff8111156117b9576117b861201e565b5b6117c58a828b016116c3565b965050604088013567ffffffffffffffff8111156117e6576117e561201e565b5b6117f28a828b016116c3565b95505060606118038a828b016116f1565b945050608088013567ffffffffffffffff8111156118245761182361201e565b5b6118308a828b016116c3565b93505060a088013567ffffffffffffffff8111156118515761185061201e565b5b61185d8a828b016116c3565b92505060c088013567ffffffffffffffff81111561187e5761187d61201e565b5b61188a8a828b016116c3565b91505092959891949750929550565b6000602082840312156118af576118ae612023565b5b60006118bd848285016116f1565b91505092915050565b60006118d182611cff565b6118db8185611d0a565b93506118eb818560208601611e1b565b6118f481612028565b840191505092915050565b600061190a82611cff565b6119148185611d1b565b9350611924818560208601611e1b565b61192d81612028565b840191505092915050565b600061194382611cff565b61194d8185611d2c565b935061195d818560208601611e1b565b80840191505092915050565b6000815461197681611e4e565b6119808186611d2c565b9450600182166000811461199b57600181146119ac576119df565b60ff198316865281860193506119df565b6119b585611cea565b60005b838110156119d7578154818901526001820191506020810190506119b8565b838801955050505b50505092915050565b60006119f5601283611d1b565b9150611a0082612039565b602082019050919050565b6000611a18600f83611d1b565b9150611a2382612062565b602082019050919050565b600061010083016000830151611a476000860182611b01565b5060208301518482036020860152611a5f82826118c6565b91505060408301518482036040860152611a7982826118c6565b91505060608301518482036060860152611a9382826118c6565b9150506080830151611aa86080860182611b01565b5060a083015184820360a0860152611ac082826118c6565b91505060c083015184820360c0860152611ada82826118c6565b91505060e083015184820360e0860152611af482826118c6565b9150508091505092915050565b611b0a81611df5565b82525050565b611b1981611df5565b82525050565b6000611b2b8284611938565b915081905092915050565b6000611b428284611969565b915081905092915050565b60006020820190508181036000830152611b6781846118ff565b905092915050565b60006020820190508181036000830152611b88816119e8565b9050919050565b60006020820190508181036000830152611ba881611a0b565b9050919050565b60006020820190508181036000830152611bc98184611a2e565b905092915050565b6000602082019050611be66000830184611b10565b92915050565b600061010082019050611c02600083018b611b10565b8181036020830152611c14818a6118ff565b90508181036040830152611c2881896118ff565b90508181036060830152611c3c81886118ff565b9050611c4b6080830187611b10565b81810360a0830152611c5d81866118ff565b905081810360c0830152611c7181856118ff565b905081810360e0830152611c8581846118ff565b90509998505050505050505050565b6000611c9e611caf565b9050611caa8282611e80565b919050565b6000604051905090565b600067ffffffffffffffff821115611cd457611cd3611fe5565b5b611cdd82612028565b9050602081019050919050565b60008190508160005260206000209050919050565b600081519050919050565b600082825260208201905092915050565b600082825260208201905092915050565b600081905092915050565b6000611d4282611df5565b9150611d4d83611df5565b9250827fffffffffffffffffffffffffffffffffffffffffffffffffffffffffffffffff03821115611d8257611d81611f29565b5b828201905092915050565b6000611d9882611df5565b9150611da383611df5565b925082821015611db657611db5611f29565b5b828203905092915050565b6000611dcc82611dff565b9150611dd783611dff565b925082821015611dea57611de9611f29565b5b828203905092915050565b6000819050919050565b600060ff82169050919050565b82818337600083830152505050565b60005b83811015611e39578082015181840152602081019050611e1e565b83811115611e48576000848401525b50505050565b60006002820490506001821680611e6657607f821691505b60208210811415611e7a57611e79611f58565b5b50919050565b611e8982612028565b810181811067ffffffffffffffff82111715611ea857611ea7611fe5565b5b80604052505050565b6000611ebc82611df5565b91507fffffffffffffffffffffffffffffffffffffffffffffffffffffffffffffffff821415611eef57611eee611f29565b5b600182019050919050565b7f4e487b7100000000000000000000000000000000000000000000000000000000600052600160045260246000fd5b7f4e487b7100000000000000000000000000000000000000000000000000000000600052601160045260246000fd5b7f4e487b7100000000000000000000000000000000000000000000000000000000600052602260045260246000fd5b7f4e487b7100000000000000000000000000000000000000000000000000000000600052603160045260246000fd5b7f4e487b7100000000000000000000000000000000000000000000000000000000600052603260045260246000fd5b7f4e487b7100000000000000000000000000000000000000000000000000000000600052604160045260246000fd5b600080fd5b600080fd5b600080fd5b600080fd5b6000601f19601f8301169050919050565b7f6e6f20657869746520726567697374726f200000000000000000000000000000600082015250565b7f79612065786973746520656c2069640000000000000000000000000000000000600082015250565b61209481611df5565b811461209f57600080fd5b5056fea2646970667358221220f4be339fcb5be02856edce7fa9a1e5dd12cc82ca81dfc6c3060a9cf81e269a6e64736f6c63430008060033",
  "immutableReferences": {},
  "source": "// SPDX-License-Identifier: MIT\r\npragma solidity ^0.8.6;\r\n\r\ncontract registrosAbox {\r\n    uint256 public counter = 0;\r\n    \r\n    struct registro {\r\n        uint256 id;\r\n        string code;\r\n        string HasCachedAcl;\r\n        string idRegistro;\r\n        uint256 IsRemoved;\r\n        string Name;\r\n        string Reference;\r\n        string Schemas;\r\n    }\r\n\r\n    struct Map {\r\n        uint256[] keys;\r\n        mapping(uint256 => uint) indexOf;\r\n        mapping(uint256 => bool) inserted;\r\n    }\r\n\r\n\r\n    function getKeyAtIndex(Map storage map, uint index) private view returns (uint256) {\r\n        return map.keys[index];\r\n    }\r\n\r\n    function size(Map storage map) private view returns (uint) {\r\n        return map.keys.length;\r\n    }\r\n\r\n    function set(\r\n        Map storage map,\r\n        uint256 key\r\n    ) private {\r\n        if (! map.inserted[key]) {\r\n            \r\n            map.inserted[key] = true;\r\n            map.indexOf[key] = map.keys.length;\r\n            map.keys.push(key);\r\n        }\r\n    }\r\n\r\n    function remove(Map storage map, uint256 key) private {\r\n        if (!map.inserted[key]) {\r\n            return;\r\n        }\r\n\r\n        delete map.inserted[key];\r\n\r\n        uint index = map.indexOf[key];\r\n        uint lastIndex = map.keys.length - 1;\r\n        uint256 lastKey = map.keys[lastIndex];\r\n\r\n        map.indexOf[lastKey] = index;\r\n        delete map.indexOf[key];\r\n\r\n        map.keys[index] = lastKey;\r\n        map.keys.pop();\r\n    }\r\n    mapping (uint256 => registro) public registros;\r\n    \r\n    mapping (uint256 => Map) private nombres;\r\n    \r\n    function upper(string memory _base)\r\n        internal\r\n        pure\r\n        returns (string memory) {\r\n        bytes memory _baseBytes = bytes(_base);\r\n        for (uint i = 0; i < _baseBytes.length; i++) {\r\n            _baseBytes[i] = _upper(_baseBytes[i]);\r\n        }\r\n        return string(_baseBytes);\r\n    }\r\n    \r\n    function _upper(bytes1 _b1)\r\n        private\r\n        pure\r\n        returns (bytes1) {\r\n\r\n        if (_b1 >= 0x61 && _b1 <= 0x7A) {\r\n            return bytes1(uint8(_b1) - 32);\r\n        }\r\n\r\n        return _b1;\r\n    }\r\n  \r\n\r\n    function createRegistro(string memory _code, string memory _HasCachedAcl, string memory _idRegistro, uint _IsRemoved, string memory _Name, string memory _Reference, string memory _Schemas) public{\r\n        uint256 idHash = uint(keccak256(abi.encodePacked(_idRegistro)));\r\n        string memory nombre = upper(_Name);\r\n        uint256 idHash2 = uint(keccak256(abi.encodePacked(nombre)));\r\n        \r\n        if (registros [idHash].id > 0){\r\n            revert('ya existe el id');\r\n        }\r\n        set(nombres[idHash2],idHash);\r\n        registros[idHash] = registro(idHash, _code, _HasCachedAcl, _idRegistro, _IsRemoved, _Name, _Reference,_Schemas);\r\n    }\r\n    \r\n    function concat(string memory _base, string memory _value)\r\n        internal\r\n        pure\r\n        returns (string memory) {\r\n        bytes memory _baseBytes = bytes(_base);\r\n        bytes memory _valueBytes = bytes(_value);\r\n\r\n        assert(_valueBytes.length > 0);\r\n\r\n        string memory _tmpValue = new string(_baseBytes.length +\r\n            _valueBytes.length);\r\n        bytes memory _newValue = bytes(_tmpValue);\r\n\r\n        uint i;\r\n        uint j;\r\n\r\n        for (i = 0; i < _baseBytes.length; i++) {\r\n            _newValue[j++] = _baseBytes[i];\r\n        }\r\n\r\n        for (i = 0; i < _valueBytes.length; i++) {\r\n            _newValue[j++] = _valueBytes[i];\r\n        }\r\n\r\n        return string(_newValue);\r\n    }\r\n    \r\n    function buscarPorNombre(string memory _Name) public view returns (string memory){\r\n        string memory nombre = upper(_Name);\r\n        uint256 Nom = uint(keccak256(abi.encodePacked(nombre)));\r\n        string memory salida = \"\";\r\n        uint i;\r\n        for (i= 0; i<size(nombres[Nom]); i++){\r\n            uint256 llave = getKeyAtIndex(nombres[Nom], i);\r\n            salida = concat(concat(salida,\";\"),registros[llave].idRegistro);\r\n        }\r\n        \r\n        return salida;\r\n    }\r\n    \r\n    \r\n\r\n    function buscarRegristroPorId(string memory _abox) public view returns(registro memory) {\r\n        \r\n        uint256 Res = uint(keccak256(abi.encodePacked(_abox)));\r\n        registro memory re = registros[Res];\r\n        return re;\r\n        \r\n    }\r\n    \r\n    function actualizarRegistro(string memory _code, string memory _HasCachedAcl, string memory _idRegistro, uint _IsRemoved, string memory _Name, string memory _Reference, string memory _Schemas) public{\r\n        uint256 idHash = uint(keccak256(abi.encodePacked(_idRegistro)));\r\n        \r\n        if (registros [idHash].id > 0){\r\n            \r\n            //registros[idHash] = registro(idHash, _code, _HasCachedAcl, _idRegistro, _IsRemoved, _Name, _Reference,_Schemas);\r\n            registros[idHash].code=_code; \r\n            registros[idHash].HasCachedAcl=_HasCachedAcl;\r\n            registros[idHash].IsRemoved=_IsRemoved;\r\n            registros[idHash].Reference=_Reference; \r\n            registros[idHash].Schemas=_Schemas;\r\n            uint256 idHash3 = uint(keccak256(abi.encodePacked(registros[idHash].Name)));\r\n            \r\n            remove(nombres[idHash3], idHash);\r\n            uint256 idHash4 = uint(keccak256(abi.encodePacked(_Name)));\r\n            set(nombres[idHash4],idHash);\r\n            registros[idHash].Name=_Name; \r\n            \r\n            \r\n        } else {\r\n            revert('no exite registro ');\r\n        }\r\n        \r\n    }\r\n    function borrarRegistro(string memory _idRegistro) public{\r\n        uint256 idHash = uint(keccak256(abi.encodePacked(_idRegistro)));\r\n        \r\n        if (registros [idHash].id > 0){\r\n            registros[idHash] = registro(0, \"\", \"\", \"\", 0, \"\", \"\",\"\");\r\n        } else {\r\n            revert('no exite registro ');\r\n        }\r\n        \r\n    }\r\n\r\n}",
  "sourcePath": "C:\\Users\\adapting\\Desktop\\registrosAbox\\contracts\\registrosAbox.sol",
  "compiler": {
    "name": "solc",
    "version": "0.8.6+commit.11564f7e.Emscripten.clang"
  },
  "schemaVersion": "3.4.3",
  "updatedAt": "2021-09-08T21:15:31.268Z",
  "networkType": "ethereum",
  "devdoc": {
    "kind": "dev",
    "methods": {},
    "version": 1
  },
  "userdoc": {
    "kind": "user",
    "methods": {},
    "version": 1
  }
}